{
  "address": "0x2C8604f87eA459484379fE1d68564f523b4D8a1a",
  "abi": [
    {
      "inputs": [
        {
          "internalType": "string",
          "name": "_name",
          "type": "string"
        },
        {
          "internalType": "string",
          "name": "_symbol",
          "type": "string"
        }
      ],
      "stateMutability": "nonpayable",
      "type": "constructor"
    },
    {
      "inputs": [
        {
          "internalType": "address",
          "name": "sender",
          "type": "address"
        },
        {
          "internalType": "uint256",
          "name": "tokenId",
          "type": "uint256"
        },
        {
          "internalType": "address",
          "name": "owner",
          "type": "address"
        }
      ],
      "name": "ERC721IncorrectOwner",
      "type": "error"
    },
    {
      "inputs": [
        {
          "internalType": "address",
          "name": "operator",
          "type": "address"
        },
        {
          "internalType": "uint256",
          "name": "tokenId",
          "type": "uint256"
        }
      ],
      "name": "ERC721InsufficientApproval",
      "type": "error"
    },
    {
      "inputs": [
        {
          "internalType": "address",
          "name": "approver",
          "type": "address"
        }
      ],
      "name": "ERC721InvalidApprover",
      "type": "error"
    },
    {
      "inputs": [
        {
          "internalType": "address",
          "name": "operator",
          "type": "address"
        }
      ],
      "name": "ERC721InvalidOperator",
      "type": "error"
    },
    {
      "inputs": [
        {
          "internalType": "address",
          "name": "owner",
          "type": "address"
        }
      ],
      "name": "ERC721InvalidOwner",
      "type": "error"
    },
    {
      "inputs": [
        {
          "internalType": "address",
          "name": "receiver",
          "type": "address"
        }
      ],
      "name": "ERC721InvalidReceiver",
      "type": "error"
    },
    {
      "inputs": [
        {
          "internalType": "address",
          "name": "sender",
          "type": "address"
        }
      ],
      "name": "ERC721InvalidSender",
      "type": "error"
    },
    {
      "inputs": [
        {
          "internalType": "uint256",
          "name": "tokenId",
          "type": "uint256"
        }
      ],
      "name": "ERC721NonexistentToken",
      "type": "error"
    },
    {
      "anonymous": false,
      "inputs": [
        {
          "indexed": true,
          "internalType": "address",
          "name": "owner",
          "type": "address"
        },
        {
          "indexed": true,
          "internalType": "address",
          "name": "approved",
          "type": "address"
        },
        {
          "indexed": true,
          "internalType": "uint256",
          "name": "tokenId",
          "type": "uint256"
        }
      ],
      "name": "Approval",
      "type": "event"
    },
    {
      "anonymous": false,
      "inputs": [
        {
          "indexed": true,
          "internalType": "address",
          "name": "owner",
          "type": "address"
        },
        {
          "indexed": true,
          "internalType": "address",
          "name": "operator",
          "type": "address"
        },
        {
          "indexed": false,
          "internalType": "bool",
          "name": "approved",
          "type": "bool"
        }
      ],
      "name": "ApprovalForAll",
      "type": "event"
    },
    {
      "anonymous": false,
      "inputs": [
        {
          "indexed": false,
          "internalType": "uint256",
          "name": "_fromTokenId",
          "type": "uint256"
        },
        {
          "indexed": false,
          "internalType": "uint256",
          "name": "_toTokenId",
          "type": "uint256"
        }
      ],
      "name": "BatchMetadataUpdate",
      "type": "event"
    },
    {
      "anonymous": false,
      "inputs": [
        {
          "indexed": false,
          "internalType": "uint256",
          "name": "tokenId",
          "type": "uint256"
        },
        {
          "indexed": false,
          "internalType": "string",
          "name": "metadata",
          "type": "string"
        }
      ],
      "name": "CardAdded",
      "type": "event"
    },
    {
      "anonymous": false,
      "inputs": [
        {
          "indexed": false,
          "internalType": "uint256",
          "name": "_tokenId",
          "type": "uint256"
        }
      ],
      "name": "MetadataUpdate",
      "type": "event"
    },
    {
      "anonymous": false,
      "inputs": [
        {
          "indexed": true,
          "internalType": "address",
          "name": "from",
          "type": "address"
        },
        {
          "indexed": true,
          "internalType": "address",
          "name": "to",
          "type": "address"
        },
        {
          "indexed": true,
          "internalType": "uint256",
          "name": "tokenId",
          "type": "uint256"
        }
      ],
      "name": "Transfer",
      "type": "event"
    },
    {
      "inputs": [],
      "name": "_cardCount",
      "outputs": [
        {
          "internalType": "uint256",
          "name": "",
          "type": "uint256"
        }
      ],
      "stateMutability": "view",
      "type": "function"
    },
    {
      "inputs": [],
      "name": "_collectionName",
      "outputs": [
        {
          "internalType": "string",
          "name": "",
          "type": "string"
        }
      ],
      "stateMutability": "view",
      "type": "function"
    },
    {
      "inputs": [],
      "name": "_nextTokenId",
      "outputs": [
        {
          "internalType": "uint256",
          "name": "",
          "type": "uint256"
        }
      ],
      "stateMutability": "view",
      "type": "function"
    },
    {
      "inputs": [
        {
          "internalType": "address",
          "name": "to",
          "type": "address"
        },
        {
          "internalType": "uint256",
          "name": "tokenId",
          "type": "uint256"
        }
      ],
      "name": "approve",
      "outputs": [],
      "stateMutability": "nonpayable",
      "type": "function"
    },
    {
      "inputs": [
        {
          "internalType": "address",
          "name": "owner",
          "type": "address"
        }
      ],
      "name": "balanceOf",
      "outputs": [
        {
          "internalType": "uint256",
          "name": "",
          "type": "uint256"
        }
      ],
      "stateMutability": "view",
      "type": "function"
    },
    {
      "inputs": [
        {
          "internalType": "uint256",
          "name": "tokenId",
          "type": "uint256"
        }
      ],
      "name": "getApproved",
      "outputs": [
        {
          "internalType": "address",
          "name": "",
          "type": "address"
        }
      ],
      "stateMutability": "view",
      "type": "function"
    },
    {
      "inputs": [
        {
          "internalType": "uint256",
          "name": "tokenId",
          "type": "uint256"
        }
      ],
      "name": "getCardMetadata",
      "outputs": [
        {
          "internalType": "string",
          "name": "",
          "type": "string"
        }
      ],
      "stateMutability": "view",
      "type": "function"
    },
    {
      "inputs": [],
      "name": "getCardsMetadataLength",
      "outputs": [
        {
          "internalType": "uint256",
          "name": "",
          "type": "uint256"
        }
      ],
      "stateMutability": "view",
      "type": "function"
    },
    {
      "inputs": [
        {
          "internalType": "address",
          "name": "owner",
          "type": "address"
        },
        {
          "internalType": "address",
          "name": "operator",
          "type": "address"
        }
      ],
      "name": "isApprovedForAll",
      "outputs": [
        {
          "internalType": "bool",
          "name": "",
          "type": "bool"
        }
      ],
      "stateMutability": "view",
      "type": "function"
    },
    {
      "inputs": [
        {
          "internalType": "string",
          "name": "tokenURI",
          "type": "string"
        }
      ],
      "name": "mint",
      "outputs": [
        {
          "internalType": "uint256",
          "name": "",
          "type": "uint256"
        }
      ],
      "stateMutability": "nonpayable",
      "type": "function"
    },
    {
      "inputs": [],
      "name": "name",
      "outputs": [
        {
          "internalType": "string",
          "name": "",
          "type": "string"
        }
      ],
      "stateMutability": "view",
      "type": "function"
    },
    {
      "inputs": [
        {
          "internalType": "uint256",
          "name": "tokenId",
          "type": "uint256"
        }
      ],
      "name": "ownerOf",
      "outputs": [
        {
          "internalType": "address",
          "name": "",
          "type": "address"
        }
      ],
      "stateMutability": "view",
      "type": "function"
    },
    {
      "inputs": [
        {
          "internalType": "address",
          "name": "from",
          "type": "address"
        },
        {
          "internalType": "address",
          "name": "to",
          "type": "address"
        },
        {
          "internalType": "uint256",
          "name": "tokenId",
          "type": "uint256"
        }
      ],
      "name": "safeTransferFrom",
      "outputs": [],
      "stateMutability": "nonpayable",
      "type": "function"
    },
    {
      "inputs": [
        {
          "internalType": "address",
          "name": "from",
          "type": "address"
        },
        {
          "internalType": "address",
          "name": "to",
          "type": "address"
        },
        {
          "internalType": "uint256",
          "name": "tokenId",
          "type": "uint256"
        },
        {
          "internalType": "bytes",
          "name": "data",
          "type": "bytes"
        }
      ],
      "name": "safeTransferFrom",
      "outputs": [],
      "stateMutability": "nonpayable",
      "type": "function"
    },
    {
      "inputs": [
        {
          "internalType": "address",
          "name": "operator",
          "type": "address"
        },
        {
          "internalType": "bool",
          "name": "approved",
          "type": "bool"
        }
      ],
      "name": "setApprovalForAll",
      "outputs": [],
      "stateMutability": "nonpayable",
      "type": "function"
    },
    {
      "inputs": [
        {
          "internalType": "string",
          "name": "name",
          "type": "string"
        },
        {
          "internalType": "uint256",
          "name": "cardCount",
          "type": "uint256"
        }
      ],
      "name": "setAttributes",
      "outputs": [],
      "stateMutability": "nonpayable",
      "type": "function"
    },
    {
      "inputs": [
        {
          "internalType": "bytes4",
          "name": "interfaceId",
          "type": "bytes4"
        }
      ],
      "name": "supportsInterface",
      "outputs": [
        {
          "internalType": "bool",
          "name": "",
          "type": "bool"
        }
      ],
      "stateMutability": "view",
      "type": "function"
    },
    {
      "inputs": [],
      "name": "symbol",
      "outputs": [
        {
          "internalType": "string",
          "name": "",
          "type": "string"
        }
      ],
      "stateMutability": "view",
      "type": "function"
    },
    {
      "inputs": [
        {
          "internalType": "uint256",
          "name": "tokenId",
          "type": "uint256"
        }
      ],
      "name": "tokenURI",
      "outputs": [
        {
          "internalType": "string",
          "name": "",
          "type": "string"
        }
      ],
      "stateMutability": "view",
      "type": "function"
    },
    {
      "inputs": [
        {
          "internalType": "address",
          "name": "to",
          "type": "address"
        },
        {
          "internalType": "uint256",
          "name": "tokenId",
          "type": "uint256"
        }
      ],
      "name": "transferCard",
      "outputs": [],
      "stateMutability": "nonpayable",
      "type": "function"
    },
    {
      "inputs": [
        {
          "internalType": "address",
          "name": "from",
          "type": "address"
        },
        {
          "internalType": "address",
          "name": "to",
          "type": "address"
        },
        {
          "internalType": "uint256",
          "name": "tokenId",
          "type": "uint256"
        }
      ],
      "name": "transferFrom",
      "outputs": [],
      "stateMutability": "nonpayable",
      "type": "function"
    }
  ],
  "transactionHash": "0xe3969fee56fc06dfafaa60123c2f5ee207c3c7169bad23d61c271fda72084786",
  "args": [
    "CollectionPokemon",
    "SET1"
  ],
  "numDeployments": 1,
  "solcInputHash": "953e35bee6fdfc464030284204883d6f",
  "bytecode": "0x608060405234801562000010575f80fd5b5060405162002cca38038062002cca8339818101604052810190620000369190620001f1565b8181815f9081620000489190620004ab565b5080600190816200005a9190620004ab565b5050505f60098190555050506200058f565b5f604051905090565b5f80fd5b5f80fd5b5f80fd5b5f80fd5b5f601f19601f8301169050919050565b7f4e487b71000000000000000000000000000000000000000000000000000000005f52604160045260245ffd5b620000cd8262000085565b810181811067ffffffffffffffff82111715620000ef57620000ee62000095565b5b80604052505050565b5f620001036200006c565b9050620001118282620000c2565b919050565b5f67ffffffffffffffff82111562000133576200013262000095565b5b6200013e8262000085565b9050602081019050919050565b5f5b838110156200016a5780820151818401526020810190506200014d565b5f8484015250505050565b5f6200018b620001858462000116565b620000f8565b905082815260208101848484011115620001aa57620001a962000081565b5b620001b78482856200014b565b509392505050565b5f82601f830112620001d657620001d56200007d565b5b8151620001e884826020860162000175565b91505092915050565b5f80604083850312156200020a576200020962000075565b5b5f83015167ffffffffffffffff8111156200022a576200022962000079565b5b6200023885828601620001bf565b925050602083015167ffffffffffffffff8111156200025c576200025b62000079565b5b6200026a85828601620001bf565b9150509250929050565b5f81519050919050565b7f4e487b71000000000000000000000000000000000000000000000000000000005f52602260045260245ffd5b5f6002820490506001821680620002c357607f821691505b602082108103620002d957620002d86200027e565b5b50919050565b5f819050815f5260205f209050919050565b5f6020601f8301049050919050565b5f82821b905092915050565b5f600883026200033d7fffffffffffffffffffffffffffffffffffffffffffffffffffffffffffffffff8262000300565b62000349868362000300565b95508019841693508086168417925050509392505050565b5f819050919050565b5f819050919050565b5f620003936200038d620003878462000361565b6200036a565b62000361565b9050919050565b5f819050919050565b620003ae8362000373565b620003c6620003bd826200039a565b8484546200030c565b825550505050565b5f90565b620003dc620003ce565b620003e9818484620003a3565b505050565b5b818110156200041057620004045f82620003d2565b600181019050620003ef565b5050565b601f8211156200045f576200042981620002df565b6200043484620002f1565b8101602085101562000444578190505b6200045c6200045385620002f1565b830182620003ee565b50505b505050565b5f82821c905092915050565b5f620004815f198460080262000464565b1980831691505092915050565b5f6200049b838362000470565b9150826002028217905092915050565b620004b68262000274565b67ffffffffffffffff811115620004d257620004d162000095565b5b620004de8254620002ab565b620004eb82828562000414565b5f60209050601f83116001811462000521575f84156200050c578287015190505b6200051885826200048e565b86555062000587565b601f1984166200053186620002df565b5f5b828110156200055a5784890151825560018201915060208501945060208101905062000533565b868310156200057a578489015162000576601f89168262000470565b8355505b6001600288020188555050505b505050505050565b61272d806200059d5f395ff3fe608060405234801561000f575f80fd5b5060043610610135575f3560e01c806370a08231116100b6578063b60b118b1161007a578063b60b118b14610349578063b88d4fde14610367578063c87b56dd14610383578063d85d3d27146103b3578063e985e9c5146103e3578063ebf0ae4e1461041357610135565b806370a08231146102a757806373c275bc146102d757806395d89b41146102f35780639b81a35914610311578063a22cb4651461032d57610135565b8063349cd113116100fd578063349cd113146101ef57806342842e0e1461020d57806343c3f0a2146102295780634a60f620146102595780636352211e1461027757610135565b806301ffc9a71461013957806306fdde0314610169578063081812fc14610187578063095ea7b3146101b757806323b872dd146101d3575b5f80fd5b610153600480360381019061014e9190611b25565b610431565b6040516101609190611b6a565b60405180910390f35b610171610491565b60405161017e9190611c0d565b60405180910390f35b6101a1600480360381019061019c9190611c60565b610520565b6040516101ae9190611cca565b60405180910390f35b6101d160048036038101906101cc9190611d0d565b61053b565b005b6101ed60048036038101906101e89190611d4b565b610551565b005b6101f7610650565b6040516102049190611c0d565b60405180910390f35b61022760048036038101906102229190611d4b565b6106dc565b005b610243600480360381019061023e9190611c60565b6106fb565b6040516102509190611c0d565b60405180910390f35b61026161079c565b60405161026e9190611daa565b60405180910390f35b610291600480360381019061028c9190611c60565b6107a2565b60405161029e9190611cca565b60405180910390f35b6102c160048036038101906102bc9190611dc3565b6107b3565b6040516102ce9190611daa565b60405180910390f35b6102f160048036038101906102ec9190611f1a565b610869565b005b6102fb610884565b6040516103089190611c0d565b60405180910390f35b61032b60048036038101906103269190611d0d565b610914565b005b61034760048036038101906103429190611f9e565b61096c565b005b610351610982565b60405161035e9190611daa565b60405180910390f35b610381600480360381019061037c919061207a565b610988565b005b61039d60048036038101906103989190611c60565b6109a5565b6040516103aa9190611c0d565b60405180910390f35b6103cd60048036038101906103c891906120fa565b610ab0565b6040516103da9190611daa565b60405180910390f35b6103fd60048036038101906103f89190612141565b610aed565b60405161040a9190611b6a565b60405180910390f35b61041b610b7b565b6040516104289190611daa565b60405180910390f35b5f634906490660e01b7bffffffffffffffffffffffffffffffffffffffffffffffffffffffff1916827bffffffffffffffffffffffffffffffffffffffffffffffffffffffff1916148061048a575061048982610b84565b5b9050919050565b60605f805461049f906121ac565b80601f01602080910402602001604051908101604052809291908181526020018280546104cb906121ac565b80156105165780601f106104ed57610100808354040283529160200191610516565b820191905f5260205f20905b8154815290600101906020018083116104f957829003601f168201915b5050505050905090565b5f61052a82610c65565b5061053482610ceb565b9050919050565b61054d8282610548610d24565b610d2b565b5050565b5f73ffffffffffffffffffffffffffffffffffffffff168273ffffffffffffffffffffffffffffffffffffffff16036105c1575f6040517f64a0ae920000000000000000000000000000000000000000000000000000000081526004016105b89190611cca565b60405180910390fd5b5f6105d483836105cf610d24565b610d3d565b90508373ffffffffffffffffffffffffffffffffffffffff168173ffffffffffffffffffffffffffffffffffffffff161461064a578382826040517f64283d7b000000000000000000000000000000000000000000000000000000008152600401610641939291906121dc565b60405180910390fd5b50505050565b6007805461065d906121ac565b80601f0160208091040260200160405190810160405280929190818152602001828054610689906121ac565b80156106d45780601f106106ab576101008083540402835291602001916106d4565b820191905f5260205f20905b8154815290600101906020018083116106b757829003601f168201915b505050505081565b6106f683838360405180602001604052805f815250610988565b505050565b6060600a5f8381526020019081526020015f208054610719906121ac565b80601f0160208091040260200160405190810160405280929190818152602001828054610745906121ac565b80156107905780601f1061076757610100808354040283529160200191610790565b820191905f5260205f20905b81548152906001019060200180831161077357829003601f168201915b50505050509050919050565b60095481565b5f6107ac82610c65565b9050919050565b5f8073ffffffffffffffffffffffffffffffffffffffff168273ffffffffffffffffffffffffffffffffffffffff1603610824575f6040517f89c62b6400000000000000000000000000000000000000000000000000000000815260040161081b9190611cca565b60405180910390fd5b60035f8373ffffffffffffffffffffffffffffffffffffffff1673ffffffffffffffffffffffffffffffffffffffff1681526020019081526020015f20549050919050565b816007908161087891906123ae565b50806008819055505050565b606060018054610893906121ac565b80601f01602080910402602001604051908101604052809291908181526020018280546108bf906121ac565b801561090a5780601f106108e15761010080835404028352916020019161090a565b820191905f5260205f20905b8154815290600101906020018083116108ed57829003601f168201915b5050505050905090565b61091e3382610f48565b61095d576040517f08c379a0000000000000000000000000000000000000000000000000000000008152600401610954906124ed565b60405180910390fd5b6109683383836106dc565b5050565b61097e610977610d24565b8383610fdc565b5050565b60085481565b610993848484610551565b61099f84848484611145565b50505050565b60606109b082610c65565b505f60065f8481526020019081526020015f2080546109ce906121ac565b80601f01602080910402602001604051908101604052809291908181526020018280546109fa906121ac565b8015610a455780601f10610a1c57610100808354040283529160200191610a45565b820191905f5260205f20905b815481529060010190602001808311610a2857829003601f168201915b505050505090505f610a556112f7565b90505f815103610a69578192505050610aab565b5f82511115610a9d578082604051602001610a85929190612545565b60405160208183030381529060405292505050610aab565b610aa68461130d565b925050505b919050565b5f806009549050610ac13382611373565b610acb8184611466565b600160095f828254610add9190612595565b9250508190555080915050919050565b5f60055f8473ffffffffffffffffffffffffffffffffffffffff1673ffffffffffffffffffffffffffffffffffffffff1681526020019081526020015f205f8373ffffffffffffffffffffffffffffffffffffffff1673ffffffffffffffffffffffffffffffffffffffff1681526020019081526020015f205f9054906101000a900460ff16905092915050565b5f600954905090565b5f7f80ac58cd000000000000000000000000000000000000000000000000000000007bffffffffffffffffffffffffffffffffffffffffffffffffffffffff1916827bffffffffffffffffffffffffffffffffffffffffffffffffffffffff19161480610c4e57507f5b5e139f000000000000000000000000000000000000000000000000000000007bffffffffffffffffffffffffffffffffffffffffffffffffffffffff1916827bffffffffffffffffffffffffffffffffffffffffffffffffffffffff1916145b80610c5e5750610c5d826114c0565b5b9050919050565b5f80610c7083611529565b90505f73ffffffffffffffffffffffffffffffffffffffff168173ffffffffffffffffffffffffffffffffffffffff1603610ce257826040517f7e273289000000000000000000000000000000000000000000000000000000008152600401610cd99190611daa565b60405180910390fd5b80915050919050565b5f60045f8381526020019081526020015f205f9054906101000a900473ffffffffffffffffffffffffffffffffffffffff169050919050565b5f33905090565b610d388383836001611562565b505050565b5f80610d4884611529565b90505f73ffffffffffffffffffffffffffffffffffffffff168373ffffffffffffffffffffffffffffffffffffffff1614610d8957610d88818486611721565b5b5f73ffffffffffffffffffffffffffffffffffffffff168173ffffffffffffffffffffffffffffffffffffffff1614610e1457610dc85f855f80611562565b600160035f8373ffffffffffffffffffffffffffffffffffffffff1673ffffffffffffffffffffffffffffffffffffffff1681526020019081526020015f205f82825403925050819055505b5f73ffffffffffffffffffffffffffffffffffffffff168573ffffffffffffffffffffffffffffffffffffffff1614610e9357600160035f8773ffffffffffffffffffffffffffffffffffffffff1673ffffffffffffffffffffffffffffffffffffffff1681526020019081526020015f205f82825401925050819055505b8460025f8681526020019081526020015f205f6101000a81548173ffffffffffffffffffffffffffffffffffffffff021916908373ffffffffffffffffffffffffffffffffffffffff160217905550838573ffffffffffffffffffffffffffffffffffffffff168273ffffffffffffffffffffffffffffffffffffffff167fddf252ad1be2c89b69c2b068fc378daa952ba7f163c4a11628f55a4df523b3ef60405160405180910390a4809150509392505050565b5f80610f53836107a2565b90508073ffffffffffffffffffffffffffffffffffffffff168473ffffffffffffffffffffffffffffffffffffffff161480610fc257508373ffffffffffffffffffffffffffffffffffffffff16610faa84610520565b73ffffffffffffffffffffffffffffffffffffffff16145b80610fd35750610fd28185610aed565b5b91505092915050565b5f73ffffffffffffffffffffffffffffffffffffffff168273ffffffffffffffffffffffffffffffffffffffff160361104c57816040517f5b08ba180000000000000000000000000000000000000000000000000000000081526004016110439190611cca565b60405180910390fd5b8060055f8573ffffffffffffffffffffffffffffffffffffffff1673ffffffffffffffffffffffffffffffffffffffff1681526020019081526020015f205f8473ffffffffffffffffffffffffffffffffffffffff1673ffffffffffffffffffffffffffffffffffffffff1681526020019081526020015f205f6101000a81548160ff0219169083151502179055508173ffffffffffffffffffffffffffffffffffffffff168373ffffffffffffffffffffffffffffffffffffffff167f17307eab39ab6107e8899845ad3d59bd9653f200f220920489ca2b5937696c31836040516111389190611b6a565b60405180910390a3505050565b5f8373ffffffffffffffffffffffffffffffffffffffff163b11156112f1578273ffffffffffffffffffffffffffffffffffffffff1663150b7a02611188610d24565b8685856040518563ffffffff1660e01b81526004016111aa949392919061261a565b6020604051808303815f875af19250505080156111e557506040513d601f19601f820116820180604052508101906111e29190612678565b60015b611266573d805f8114611213576040519150601f19603f3d011682016040523d82523d5f602084013e611218565b606091505b505f81510361125e57836040517f64a0ae920000000000000000000000000000000000000000000000000000000081526004016112559190611cca565b60405180910390fd5b805181602001fd5b63150b7a0260e01b7bffffffffffffffffffffffffffffffffffffffffffffffffffffffff1916817bffffffffffffffffffffffffffffffffffffffffffffffffffffffff1916146112ef57836040517f64a0ae920000000000000000000000000000000000000000000000000000000081526004016112e69190611cca565b60405180910390fd5b505b50505050565b606060405180602001604052805f815250905090565b606061131882610c65565b505f6113226112f7565b90505f8151116113405760405180602001604052805f81525061136b565b8061134a846117e4565b60405160200161135b929190612545565b6040516020818303038152906040525b915050919050565b5f73ffffffffffffffffffffffffffffffffffffffff168273ffffffffffffffffffffffffffffffffffffffff16036113e3575f6040517f64a0ae920000000000000000000000000000000000000000000000000000000081526004016113da9190611cca565b60405180910390fd5b5f6113ef83835f610d3d565b90505f73ffffffffffffffffffffffffffffffffffffffff168173ffffffffffffffffffffffffffffffffffffffff1614611461575f6040517f73c6ac6e0000000000000000000000000000000000000000000000000000000081526004016114589190611cca565b60405180910390fd5b505050565b8060065f8481526020019081526020015f20908161148491906123ae565b507ff8e1a15aba9398e019f0b49df1a4fde98ee17ae345cb5f6b5e2c27f5033e8ce7826040516114b49190611daa565b60405180910390a15050565b5f7f01ffc9a7000000000000000000000000000000000000000000000000000000007bffffffffffffffffffffffffffffffffffffffffffffffffffffffff1916827bffffffffffffffffffffffffffffffffffffffffffffffffffffffff1916149050919050565b5f60025f8381526020019081526020015f205f9054906101000a900473ffffffffffffffffffffffffffffffffffffffff169050919050565b808061159a57505f73ffffffffffffffffffffffffffffffffffffffff168273ffffffffffffffffffffffffffffffffffffffff1614155b156116cc575f6115a984610c65565b90505f73ffffffffffffffffffffffffffffffffffffffff168373ffffffffffffffffffffffffffffffffffffffff161415801561161357508273ffffffffffffffffffffffffffffffffffffffff168173ffffffffffffffffffffffffffffffffffffffff1614155b801561162657506116248184610aed565b155b1561166857826040517fa9fbf51f00000000000000000000000000000000000000000000000000000000815260040161165f9190611cca565b60405180910390fd5b81156116ca57838573ffffffffffffffffffffffffffffffffffffffff168273ffffffffffffffffffffffffffffffffffffffff167f8c5be1e5ebec7d5bd14f71427d1e84f3dd0314c0f7b2291e5b200ac8c7c3b92560405160405180910390a45b505b8360045f8581526020019081526020015f205f6101000a81548173ffffffffffffffffffffffffffffffffffffffff021916908373ffffffffffffffffffffffffffffffffffffffff16021790555050505050565b61172c8383836118ae565b6117df575f73ffffffffffffffffffffffffffffffffffffffff168373ffffffffffffffffffffffffffffffffffffffff16036117a057806040517f7e2732890000000000000000000000000000000000000000000000000000000081526004016117979190611daa565b60405180910390fd5b81816040517f177e802f0000000000000000000000000000000000000000000000000000000081526004016117d69291906126a3565b60405180910390fd5b505050565b60605f60016117f28461196e565b0190505f8167ffffffffffffffff8111156118105761180f611df6565b5b6040519080825280601f01601f1916602001820160405280156118425781602001600182028036833780820191505090505b5090505f82602001820190505b6001156118a3578080600190039150507f3031323334353637383961626364656600000000000000000000000000000000600a86061a8153600a8581611898576118976126ca565b5b0494505f850361184f575b819350505050919050565b5f8073ffffffffffffffffffffffffffffffffffffffff168373ffffffffffffffffffffffffffffffffffffffff161415801561196557508273ffffffffffffffffffffffffffffffffffffffff168473ffffffffffffffffffffffffffffffffffffffff16148061192657506119258484610aed565b5b8061196457508273ffffffffffffffffffffffffffffffffffffffff1661194c83610ceb565b73ffffffffffffffffffffffffffffffffffffffff16145b5b90509392505050565b5f805f90507a184f03e93ff9f4daa797ed6e38ed64bf6a1f01000000000000000083106119ca577a184f03e93ff9f4daa797ed6e38ed64bf6a1f01000000000000000083816119c0576119bf6126ca565b5b0492506040810190505b6d04ee2d6d415b85acef81000000008310611a07576d04ee2d6d415b85acef810000000083816119fd576119fc6126ca565b5b0492506020810190505b662386f26fc100008310611a3657662386f26fc100008381611a2c57611a2b6126ca565b5b0492506010810190505b6305f5e1008310611a5f576305f5e1008381611a5557611a546126ca565b5b0492506008810190505b6127108310611a84576127108381611a7a57611a796126ca565b5b0492506004810190505b60648310611aa75760648381611a9d57611a9c6126ca565b5b0492506002810190505b600a8310611ab6576001810190505b80915050919050565b5f604051905090565b5f80fd5b5f80fd5b5f7fffffffff0000000000000000000000000000000000000000000000000000000082169050919050565b611b0481611ad0565b8114611b0e575f80fd5b50565b5f81359050611b1f81611afb565b92915050565b5f60208284031215611b3a57611b39611ac8565b5b5f611b4784828501611b11565b91505092915050565b5f8115159050919050565b611b6481611b50565b82525050565b5f602082019050611b7d5f830184611b5b565b92915050565b5f81519050919050565b5f82825260208201905092915050565b5f5b83811015611bba578082015181840152602081019050611b9f565b5f8484015250505050565b5f601f19601f8301169050919050565b5f611bdf82611b83565b611be98185611b8d565b9350611bf9818560208601611b9d565b611c0281611bc5565b840191505092915050565b5f6020820190508181035f830152611c258184611bd5565b905092915050565b5f819050919050565b611c3f81611c2d565b8114611c49575f80fd5b50565b5f81359050611c5a81611c36565b92915050565b5f60208284031215611c7557611c74611ac8565b5b5f611c8284828501611c4c565b91505092915050565b5f73ffffffffffffffffffffffffffffffffffffffff82169050919050565b5f611cb482611c8b565b9050919050565b611cc481611caa565b82525050565b5f602082019050611cdd5f830184611cbb565b92915050565b611cec81611caa565b8114611cf6575f80fd5b50565b5f81359050611d0781611ce3565b92915050565b5f8060408385031215611d2357611d22611ac8565b5b5f611d3085828601611cf9565b9250506020611d4185828601611c4c565b9150509250929050565b5f805f60608486031215611d6257611d61611ac8565b5b5f611d6f86828701611cf9565b9350506020611d8086828701611cf9565b9250506040611d9186828701611c4c565b9150509250925092565b611da481611c2d565b82525050565b5f602082019050611dbd5f830184611d9b565b92915050565b5f60208284031215611dd857611dd7611ac8565b5b5f611de584828501611cf9565b91505092915050565b5f80fd5b5f80fd5b7f4e487b71000000000000000000000000000000000000000000000000000000005f52604160045260245ffd5b611e2c82611bc5565b810181811067ffffffffffffffff82111715611e4b57611e4a611df6565b5b80604052505050565b5f611e5d611abf565b9050611e698282611e23565b919050565b5f67ffffffffffffffff821115611e8857611e87611df6565b5b611e9182611bc5565b9050602081019050919050565b828183375f83830152505050565b5f611ebe611eb984611e6e565b611e54565b905082815260208101848484011115611eda57611ed9611df2565b5b611ee5848285611e9e565b509392505050565b5f82601f830112611f0157611f00611dee565b5b8135611f11848260208601611eac565b91505092915050565b5f8060408385031215611f3057611f2f611ac8565b5b5f83013567ffffffffffffffff811115611f4d57611f4c611acc565b5b611f5985828601611eed565b9250506020611f6a85828601611c4c565b9150509250929050565b611f7d81611b50565b8114611f87575f80fd5b50565b5f81359050611f9881611f74565b92915050565b5f8060408385031215611fb457611fb3611ac8565b5b5f611fc185828601611cf9565b9250506020611fd285828601611f8a565b9150509250929050565b5f67ffffffffffffffff821115611ff657611ff5611df6565b5b611fff82611bc5565b9050602081019050919050565b5f61201e61201984611fdc565b611e54565b90508281526020810184848401111561203a57612039611df2565b5b612045848285611e9e565b509392505050565b5f82601f83011261206157612060611dee565b5b813561207184826020860161200c565b91505092915050565b5f805f806080858703121561209257612091611ac8565b5b5f61209f87828801611cf9565b94505060206120b087828801611cf9565b93505060406120c187828801611c4c565b925050606085013567ffffffffffffffff8111156120e2576120e1611acc565b5b6120ee8782880161204d565b91505092959194509250565b5f6020828403121561210f5761210e611ac8565b5b5f82013567ffffffffffffffff81111561212c5761212b611acc565b5b61213884828501611eed565b91505092915050565b5f806040838503121561215757612156611ac8565b5b5f61216485828601611cf9565b925050602061217585828601611cf9565b9150509250929050565b7f4e487b71000000000000000000000000000000000000000000000000000000005f52602260045260245ffd5b5f60028204905060018216806121c357607f821691505b6020821081036121d6576121d561217f565b5b50919050565b5f6060820190506121ef5f830186611cbb565b6121fc6020830185611d9b565b6122096040830184611cbb565b949350505050565b5f819050815f5260205f209050919050565b5f6020601f8301049050919050565b5f82821b905092915050565b5f6008830261226d7fffffffffffffffffffffffffffffffffffffffffffffffffffffffffffffffff82612232565b6122778683612232565b95508019841693508086168417925050509392505050565b5f819050919050565b5f6122b26122ad6122a884611c2d565b61228f565b611c2d565b9050919050565b5f819050919050565b6122cb83612298565b6122df6122d7826122b9565b84845461223e565b825550505050565b5f90565b6122f36122e7565b6122fe8184846122c2565b505050565b5b81811015612321576123165f826122eb565b600181019050612304565b5050565b601f8211156123665761233781612211565b61234084612223565b8101602085101561234f578190505b61236361235b85612223565b830182612303565b50505b505050565b5f82821c905092915050565b5f6123865f198460080261236b565b1980831691505092915050565b5f61239e8383612377565b9150826002028217905092915050565b6123b782611b83565b67ffffffffffffffff8111156123d0576123cf611df6565b5b6123da82546121ac565b6123e5828285612325565b5f60209050601f831160018114612416575f8415612404578287015190505b61240e8582612393565b865550612475565b601f19841661242486612211565b5f5b8281101561244b57848901518255600182019150602085019450602081019050612426565b868310156124685784890151612464601f891682612377565b8355505b6001600288020188555050505b505050505050565b7f566f7573206e6520706f7576657a207472616e7366657265722071756520766f5f8201527f732070726f707265732063617274657300000000000000000000000000000000602082015250565b5f6124d7603083611b8d565b91506124e28261247d565b604082019050919050565b5f6020820190508181035f830152612504816124cb565b9050919050565b5f81905092915050565b5f61251f82611b83565b612529818561250b565b9350612539818560208601611b9d565b80840191505092915050565b5f6125508285612515565b915061255c8284612515565b91508190509392505050565b7f4e487b71000000000000000000000000000000000000000000000000000000005f52601160045260245ffd5b5f61259f82611c2d565b91506125aa83611c2d565b92508282019050808211156125c2576125c1612568565b5b92915050565b5f81519050919050565b5f82825260208201905092915050565b5f6125ec826125c8565b6125f681856125d2565b9350612606818560208601611b9d565b61260f81611bc5565b840191505092915050565b5f60808201905061262d5f830187611cbb565b61263a6020830186611cbb565b6126476040830185611d9b565b818103606083015261265981846125e2565b905095945050505050565b5f8151905061267281611afb565b92915050565b5f6020828403121561268d5761268c611ac8565b5b5f61269a84828501612664565b91505092915050565b5f6040820190506126b65f830185611cbb565b6126c36020830184611d9b565b9392505050565b7f4e487b71000000000000000000000000000000000000000000000000000000005f52601260045260245ffdfea26469706673582212209ba18ce01cb413cf578cbd5f3d807c4fa38cfab5023f4abbb22db9032dbee35464736f6c63430008140033",
  "devdoc": {
    "errors": {
      "ERC721IncorrectOwner(address,uint256,address)": [
        {
          "details": "Indicates an error related to the ownership over a particular token. Used in transfers.",
          "params": {
            "owner": "Address of the current owner of a token.",
            "sender": "Address whose tokens are being transferred.",
            "tokenId": "Identifier number of a token."
          }
        }
      ],
      "ERC721InsufficientApproval(address,uint256)": [
        {
          "details": "Indicates a failure with the `operator`s approval. Used in transfers.",
          "params": {
            "operator": "Address that may be allowed to operate on tokens without being their owner.",
            "tokenId": "Identifier number of a token."
          }
        }
      ],
      "ERC721InvalidApprover(address)": [
        {
          "details": "Indicates a failure with the `approver` of a token to be approved. Used in approvals.",
          "params": {
            "approver": "Address initiating an approval operation."
          }
        }
      ],
      "ERC721InvalidOperator(address)": [
        {
          "details": "Indicates a failure with the `operator` to be approved. Used in approvals.",
          "params": {
            "operator": "Address that may be allowed to operate on tokens without being their owner."
          }
        }
      ],
      "ERC721InvalidOwner(address)": [
        {
          "details": "Indicates that an address can't be an owner. For example, `address(0)` is a forbidden owner in EIP-20. Used in balance queries.",
          "params": {
            "owner": "Address of the current owner of a token."
          }
        }
      ],
      "ERC721InvalidReceiver(address)": [
        {
          "details": "Indicates a failure with the token `receiver`. Used in transfers.",
          "params": {
            "receiver": "Address to which tokens are being transferred."
          }
        }
      ],
      "ERC721InvalidSender(address)": [
        {
          "details": "Indicates a failure with the token `sender`. Used in transfers.",
          "params": {
            "sender": "Address whose tokens are being transferred."
          }
        }
      ],
      "ERC721NonexistentToken(uint256)": [
        {
          "details": "Indicates a `tokenId` whose `owner` is the zero address.",
          "params": {
            "tokenId": "Identifier number of a token."
          }
        }
      ]
    },
    "events": {
      "Approval(address,address,uint256)": {
        "details": "Emitted when `owner` enables `approved` to manage the `tokenId` token."
      },
      "ApprovalForAll(address,address,bool)": {
        "details": "Emitted when `owner` enables or disables (`approved`) `operator` to manage all of its assets."
      },
      "BatchMetadataUpdate(uint256,uint256)": {
        "details": "This event emits when the metadata of a range of tokens is changed. So that the third-party platforms such as NFT market could timely update the images and related attributes of the NFTs."
      },
      "MetadataUpdate(uint256)": {
        "details": "This event emits when the metadata of a token is changed. So that the third-party platforms such as NFT market could timely update the images and related attributes of the NFT."
      },
      "Transfer(address,address,uint256)": {
        "details": "Emitted when `tokenId` token is transferred from `from` to `to`."
      }
    },
    "kind": "dev",
    "methods": {
      "approve(address,uint256)": {
        "details": "See {IERC721-approve}."
      },
      "balanceOf(address)": {
        "details": "See {IERC721-balanceOf}."
      },
      "getApproved(uint256)": {
        "details": "See {IERC721-getApproved}."
      },
      "isApprovedForAll(address,address)": {
        "details": "See {IERC721-isApprovedForAll}."
      },
      "name()": {
        "details": "See {IERC721Metadata-name}."
      },
      "ownerOf(uint256)": {
        "details": "See {IERC721-ownerOf}."
      },
      "safeTransferFrom(address,address,uint256)": {
        "details": "See {IERC721-safeTransferFrom}."
      },
      "safeTransferFrom(address,address,uint256,bytes)": {
        "details": "See {IERC721-safeTransferFrom}."
      },
      "setApprovalForAll(address,bool)": {
        "details": "See {IERC721-setApprovalForAll}."
      },
      "supportsInterface(bytes4)": {
        "details": "See {IERC165-supportsInterface}"
      },
      "symbol()": {
        "details": "See {IERC721Metadata-symbol}."
      },
      "tokenURI(uint256)": {
        "details": "See {IERC721Metadata-tokenURI}."
      },
      "transferFrom(address,address,uint256)": {
        "details": "See {IERC721-transferFrom}."
      }
    },
    "version": 1
  },
  "userdoc": {
    "kind": "user",
    "methods": {},
    "version": 1
  },
  "storageLayout": {
    "storage": [
      {
        "astId": 349,
        "contract": "src/Collection.sol:Collection",
        "label": "_name",
        "offset": 0,
        "slot": "0",
        "type": "t_string_storage"
      },
      {
        "astId": 351,
        "contract": "src/Collection.sol:Collection",
        "label": "_symbol",
        "offset": 0,
        "slot": "1",
        "type": "t_string_storage"
      },
      {
        "astId": 355,
        "contract": "src/Collection.sol:Collection",
        "label": "_owners",
        "offset": 0,
        "slot": "2",
        "type": "t_mapping(t_uint256,t_address)"
      },
      {
        "astId": 359,
        "contract": "src/Collection.sol:Collection",
        "label": "_balances",
        "offset": 0,
        "slot": "3",
        "type": "t_mapping(t_address,t_uint256)"
      },
      {
        "astId": 363,
        "contract": "src/Collection.sol:Collection",
        "label": "_tokenApprovals",
        "offset": 0,
        "slot": "4",
        "type": "t_mapping(t_uint256,t_address)"
      },
      {
        "astId": 369,
        "contract": "src/Collection.sol:Collection",
        "label": "_operatorApprovals",
        "offset": 0,
        "slot": "5",
        "type": "t_mapping(t_address,t_mapping(t_address,t_bool))"
      },
      {
        "astId": 1488,
        "contract": "src/Collection.sol:Collection",
        "label": "_tokenURIs",
        "offset": 0,
        "slot": "6",
        "type": "t_mapping(t_uint256,t_string_storage)"
      },
      {
        "astId": 3094,
        "contract": "src/Collection.sol:Collection",
        "label": "_collectionName",
        "offset": 0,
        "slot": "7",
        "type": "t_string_storage"
      },
      {
        "astId": 3096,
        "contract": "src/Collection.sol:Collection",
        "label": "_cardCount",
        "offset": 0,
        "slot": "8",
        "type": "t_uint256"
      },
      {
        "astId": 3098,
        "contract": "src/Collection.sol:Collection",
        "label": "_nextTokenId",
        "offset": 0,
        "slot": "9",
        "type": "t_uint256"
      },
      {
        "astId": 3102,
        "contract": "src/Collection.sol:Collection",
        "label": "cardMetadata",
        "offset": 0,
        "slot": "10",
        "type": "t_mapping(t_uint256,t_string_storage)"
      }
    ],
    "types": {
      "t_address": {
        "encoding": "inplace",
        "label": "address",
        "numberOfBytes": "20"
      },
      "t_bool": {
        "encoding": "inplace",
        "label": "bool",
        "numberOfBytes": "1"
      },
      "t_mapping(t_address,t_bool)": {
        "encoding": "mapping",
        "key": "t_address",
        "label": "mapping(address => bool)",
        "numberOfBytes": "32",
        "value": "t_bool"
      },
      "t_mapping(t_address,t_mapping(t_address,t_bool))": {
        "encoding": "mapping",
        "key": "t_address",
        "label": "mapping(address => mapping(address => bool))",
        "numberOfBytes": "32",
        "value": "t_mapping(t_address,t_bool)"
      },
      "t_mapping(t_address,t_uint256)": {
        "encoding": "mapping",
        "key": "t_address",
        "label": "mapping(address => uint256)",
        "numberOfBytes": "32",
        "value": "t_uint256"
      },
      "t_mapping(t_uint256,t_address)": {
        "encoding": "mapping",
        "key": "t_uint256",
        "label": "mapping(uint256 => address)",
        "numberOfBytes": "32",
        "value": "t_address"
      },
      "t_mapping(t_uint256,t_string_storage)": {
        "encoding": "mapping",
        "key": "t_uint256",
        "label": "mapping(uint256 => string)",
        "numberOfBytes": "32",
        "value": "t_string_storage"
      },
      "t_string_storage": {
        "encoding": "bytes",
        "label": "string",
        "numberOfBytes": "32"
      },
      "t_uint256": {
        "encoding": "inplace",
        "label": "uint256",
        "numberOfBytes": "32"
      }
    }
  }
}